{
	"Contracts/FundMe.sol": {
		"FundMe": {
			"abi": [
				{
					"inputs": [],
					"stateMutability": "nonpayable",
					"type": "constructor"
				},
				{
					"inputs": [
						{
							"internalType": "address",
							"name": "funder",
							"type": "address"
						}
					],
					"name": "addressToAmountFunded",
					"outputs": [
						{
							"internalType": "uint256",
							"name": "amountFunded",
							"type": "uint256"
						}
					],
					"stateMutability": "view",
					"type": "function"
				},
				{
					"inputs": [],
					"name": "fund",
					"outputs": [],
					"stateMutability": "payable",
					"type": "function"
				},
				{
					"inputs": [
						{
							"internalType": "uint256",
							"name": "",
							"type": "uint256"
						}
					],
					"name": "funders",
					"outputs": [
						{
							"internalType": "address",
							"name": "",
							"type": "address"
						}
					],
					"stateMutability": "view",
					"type": "function"
				},
				{
					"inputs": [],
					"name": "minimumUSD",
					"outputs": [
						{
							"internalType": "uint256",
							"name": "",
							"type": "uint256"
						}
					],
					"stateMutability": "view",
					"type": "function"
				},
				{
					"inputs": [],
					"name": "owner",
					"outputs": [
						{
							"internalType": "address",
							"name": "",
							"type": "address"
						}
					],
					"stateMutability": "view",
					"type": "function"
				},
				{
					"inputs": [],
					"name": "withdraw",
					"outputs": [],
					"stateMutability": "nonpayable",
					"type": "function"
				}
			],
			"devdoc": {
				"kind": "dev",
				"methods": {},
				"version": 1
			},
			"evm": {
				"assembly": "    /* \"Contracts/FundMe.sol\":117:1649  contract FundMe {... */\n  mstore(0x40, 0x80)\n    /* \"Contracts/FundMe.sol\":337:341  5e18 */\n  0x4563918244f40000\n    /* \"Contracts/FundMe.sol\":309:341  uint256 public minimumUSD = 5e18 */\n  0x00\n  sstore\n    /* \"Contracts/FundMe.sol\":722:774  constructor () {... */\n  callvalue\n  dup1\n  iszero\n  tag_1\n  jumpi\n  0x00\n  dup1\n  revert\ntag_1:\n  pop\n    /* \"Contracts/FundMe.sol\":756:766  msg.sender */\n  caller\n    /* \"Contracts/FundMe.sol\":748:753  owner */\n  0x04\n  0x00\n    /* \"Contracts/FundMe.sol\":748:766  owner = msg.sender */\n  0x0100\n  exp\n  dup2\n  sload\n  dup2\n  0xffffffffffffffffffffffffffffffffffffffff\n  mul\n  not\n  and\n  swap1\n  dup4\n  0xffffffffffffffffffffffffffffffffffffffff\n  and\n  mul\n  or\n  swap1\n  sstore\n  pop\n    /* \"Contracts/FundMe.sol\":117:1649  contract FundMe {... */\n  dataSize(sub_0)\n  dup1\n  dataOffset(sub_0)\n  0x00\n  codecopy\n  0x00\n  return\nstop\n\nsub_0: assembly {\n        /* \"Contracts/FundMe.sol\":117:1649  contract FundMe {... */\n      mstore(0x40, 0x80)\n      jumpi(tag_1, lt(calldatasize, 0x04))\n      shr(0xe0, calldataload(0x00))\n      dup1\n      0x3430a88c\n      eq\n      tag_2\n      jumpi\n      dup1\n      0x3ccfd60b\n      eq\n      tag_3\n      jumpi\n      dup1\n      0x3e47d6f3\n      eq\n      tag_4\n      jumpi\n      dup1\n      0x8da5cb5b\n      eq\n      tag_5\n      jumpi\n      dup1\n      0xb60d4288\n      eq\n      tag_6\n      jumpi\n      dup1\n      0xdc0d3dff\n      eq\n      tag_7\n      jumpi\n    tag_1:\n      0x00\n      dup1\n      revert\n        /* \"Contracts/FundMe.sol\":309:341  uint256 public minimumUSD = 5e18 */\n    tag_2:\n      callvalue\n      dup1\n      iszero\n      tag_8\n      jumpi\n      0x00\n      dup1\n      revert\n    tag_8:\n      pop\n      tag_9\n      tag_10\n      jump\t// in\n    tag_9:\n      mload(0x40)\n      tag_11\n      swap2\n      swap1\n      tag_12\n      jump\t// in\n    tag_11:\n      mload(0x40)\n      dup1\n      swap2\n      sub\n      swap1\n      return\n        /* \"Contracts/FundMe.sol\":1186:1646  function withdraw () public  {... */\n    tag_3:\n      callvalue\n      dup1\n      iszero\n      tag_13\n      jumpi\n      0x00\n      dup1\n      revert\n    tag_13:\n      pop\n      tag_14\n      tag_15\n      jump\t// in\n    tag_14:\n      stop\n        /* \"Contracts/FundMe.sol\":553:631  mapping (address funder => uint256 amountFunded ) public addressToAmountFunded */\n    tag_4:\n      callvalue\n      dup1\n      iszero\n      tag_16\n      jumpi\n      0x00\n      dup1\n      revert\n    tag_16:\n      pop\n      tag_17\n      0x04\n      dup1\n      calldatasize\n      sub\n      dup2\n      add\n      swap1\n      tag_18\n      swap2\n      swap1\n      tag_19\n      jump\t// in\n    tag_18:\n      tag_20\n      jump\t// in\n    tag_17:\n      mload(0x40)\n      tag_21\n      swap2\n      swap1\n      tag_12\n      jump\t// in\n    tag_21:\n      mload(0x40)\n      dup1\n      swap2\n      sub\n      swap1\n      return\n        /* \"Contracts/FundMe.sol\":640:660  address public owner */\n    tag_5:\n      callvalue\n      dup1\n      iszero\n      tag_22\n      jumpi\n      0x00\n      dup1\n      revert\n    tag_22:\n      pop\n      tag_23\n      tag_24\n      jump\t// in\n    tag_23:\n      mload(0x40)\n      tag_25\n      swap2\n      swap1\n      tag_26\n      jump\t// in\n    tag_25:\n      mload(0x40)\n      dup1\n      swap2\n      sub\n      swap1\n      return\n        /* \"Contracts/FundMe.sol\":974:1172  function fund() public payable {... */\n    tag_6:\n      tag_27\n      tag_28\n      jump\t// in\n    tag_27:\n      stop\n        /* \"Contracts/FundMe.sol\":402:427  address [] public funders */\n    tag_7:\n      callvalue\n      dup1\n      iszero\n      tag_29\n      jumpi\n      0x00\n      dup1\n      revert\n    tag_29:\n      pop\n      tag_30\n      0x04\n      dup1\n      calldatasize\n      sub\n      dup2\n      add\n      swap1\n      tag_31\n      swap2\n      swap1\n      tag_32\n      jump\t// in\n    tag_31:\n      tag_33\n      jump\t// in\n    tag_30:\n      mload(0x40)\n      tag_34\n      swap2\n      swap1\n      tag_26\n      jump\t// in\n    tag_34:\n      mload(0x40)\n      dup1\n      swap2\n      sub\n      swap1\n      return\n        /* \"Contracts/FundMe.sol\":309:341  uint256 public minimumUSD = 5e18 */\n    tag_10:\n      sload(0x00)\n      dup2\n      jump\t// out\n        /* \"Contracts/FundMe.sol\":1186:1646  function withdraw () public  {... */\n    tag_15:\n        /* \"Contracts/FundMe.sol\":1242:1243  0 */\n      0x00\n        /* \"Contracts/FundMe.sol\":1228:1239  funderIndex */\n      0x02\n        /* \"Contracts/FundMe.sol\":1228:1243  funderIndex = 0 */\n      dup2\n      swap1\n      sstore\n      pop\n        /* \"Contracts/FundMe.sol\":1223:1394  for (funderIndex = 0; funderIndex < funders.length; funderIndex++) {... */\n    tag_36:\n        /* \"Contracts/FundMe.sol\":1259:1266  funders */\n      0x01\n        /* \"Contracts/FundMe.sol\":1259:1273  funders.length */\n      dup1\n      sload\n      swap1\n      pop\n        /* \"Contracts/FundMe.sol\":1245:1256  funderIndex */\n      sload(0x02)\n        /* \"Contracts/FundMe.sol\":1245:1273  funderIndex < funders.length */\n      lt\n        /* \"Contracts/FundMe.sol\":1223:1394  for (funderIndex = 0; funderIndex < funders.length; funderIndex++) {... */\n      iszero\n      tag_37\n      jumpi\n        /* \"Contracts/FundMe.sol\":1301:1315  address funder */\n      0x00\n        /* \"Contracts/FundMe.sol\":1318:1325  funders */\n      0x01\n        /* \"Contracts/FundMe.sol\":1326:1337  funderIndex */\n      sload(0x02)\n        /* \"Contracts/FundMe.sol\":1318:1338  funders[funderIndex] */\n      dup2\n      sload\n      dup2\n      lt\n      tag_39\n      jumpi\n      tag_40\n      tag_41\n      jump\t// in\n    tag_40:\n    tag_39:\n      swap1\n      0x00\n      mstore\n      keccak256(0x00, 0x20)\n      add\n      0x00\n      swap1\n      sload\n      swap1\n      0x0100\n      exp\n      swap1\n      div\n      0xffffffffffffffffffffffffffffffffffffffff\n      and\n        /* \"Contracts/FundMe.sol\":1301:1338  address funder = funders[funderIndex] */\n      swap1\n      pop\n        /* \"Contracts/FundMe.sol\":1381:1382  0 */\n      0x00\n        /* \"Contracts/FundMe.sol\":1349:1370  addressToAmountFunded */\n      0x03\n        /* \"Contracts/FundMe.sol\":1349:1378  addressToAmountFunded[funder] */\n      0x00\n        /* \"Contracts/FundMe.sol\":1371:1377  funder */\n      dup4\n        /* \"Contracts/FundMe.sol\":1349:1378  addressToAmountFunded[funder] */\n      0xffffffffffffffffffffffffffffffffffffffff\n      and\n      0xffffffffffffffffffffffffffffffffffffffff\n      and\n      dup2\n      mstore\n      0x20\n      add\n      swap1\n      dup2\n      mstore\n      0x20\n      add\n      0x00\n      keccak256\n        /* \"Contracts/FundMe.sol\":1349:1382  addressToAmountFunded[funder] = 0 */\n      dup2\n      swap1\n      sstore\n      pop\n        /* \"Contracts/FundMe.sol\":1290:1394  {... */\n      pop\n        /* \"Contracts/FundMe.sol\":1275:1286  funderIndex */\n      0x02\n      0x00\n        /* \"Contracts/FundMe.sol\":1275:1288  funderIndex++ */\n      dup2\n      sload\n      dup1\n      swap3\n      swap2\n      swap1\n      tag_43\n      swap1\n      tag_44\n      jump\t// in\n    tag_43:\n      swap2\n      swap1\n      pop\n      sstore\n      pop\n        /* \"Contracts/FundMe.sol\":1223:1394  for (funderIndex = 0; funderIndex < funders.length; funderIndex++) {... */\n      jump(tag_36)\n    tag_37:\n        /* \"Contracts/FundMe.sol\":1460:1461  0 */\n      0x00\n        /* \"Contracts/FundMe.sol\":1446:1462  new address[](0) */\n      0xffffffffffffffff\n      dup2\n      gt\n      iszero\n      tag_45\n      jumpi\n      tag_46\n      tag_47\n      jump\t// in\n    tag_46:\n    tag_45:\n      mload(0x40)\n      swap1\n      dup1\n      dup3\n      mstore\n      dup1\n      0x20\n      mul\n      0x20\n      add\n      dup3\n      add\n      0x40\n      mstore\n      dup1\n      iszero\n      tag_48\n      jumpi\n      dup2\n      0x20\n      add\n      0x20\n      dup3\n      mul\n      dup1\n      calldatasize\n      dup4\n      calldatacopy\n      dup1\n      dup3\n      add\n      swap2\n      pop\n      pop\n      swap1\n      pop\n    tag_48:\n      pop\n        /* \"Contracts/FundMe.sol\":1436:1443  funders */\n      0x01\n        /* \"Contracts/FundMe.sol\":1436:1462  funders = new address[](0) */\n      swap1\n      dup1\n      mload\n      swap1\n      0x20\n      add\n      swap1\n      tag_49\n      swap3\n      swap2\n      swap1\n      tag_50\n      jump\t// in\n    tag_49:\n      pop\n        /* \"Contracts/FundMe.sol\":1506:1522  bool callSuccess */\n      0x00\n        /* \"Contracts/FundMe.sol\":1537:1547  msg.sender */\n      caller\n        /* \"Contracts/FundMe.sol\":1528:1553  payable (msg.sender).call */\n      0xffffffffffffffffffffffffffffffffffffffff\n      and\n        /* \"Contracts/FundMe.sol\":1561:1582  address(this).balance */\n      selfbalance\n        /* \"Contracts/FundMe.sol\":1528:1588  payable (msg.sender).call{value: address(this).balance} (\"\") */\n      mload(0x40)\n      tag_51\n      swap1\n      tag_52\n      jump\t// in\n    tag_51:\n      0x00\n      mload(0x40)\n      dup1\n      dup4\n      sub\n      dup2\n      dup6\n      dup8\n      gas\n      call\n      swap3\n      pop\n      pop\n      pop\n      returndatasize\n      dup1\n      0x00\n      dup2\n      eq\n      tag_55\n      jumpi\n      mload(0x40)\n      swap2\n      pop\n      and(add(returndatasize, 0x3f), not(0x1f))\n      dup3\n      add\n      0x40\n      mstore\n      returndatasize\n      dup3\n      mstore\n      returndatasize\n      0x00\n      0x20\n      dup5\n      add\n      returndatacopy\n      jump(tag_54)\n    tag_55:\n      0x60\n      swap2\n      pop\n    tag_54:\n      pop\n        /* \"Contracts/FundMe.sol\":1505:1588  (bool callSuccess, ) = payable (msg.sender).call{value: address(this).balance} (\"\") */\n      pop\n      swap1\n      pop\n        /* \"Contracts/FundMe.sol\":1607:1618  callSuccess */\n      dup1\n        /* \"Contracts/FundMe.sol\":1599:1636  require(callSuccess , \"call Failed\" ) */\n      tag_56\n      jumpi\n      mload(0x40)\n      0x08c379a000000000000000000000000000000000000000000000000000000000\n      dup2\n      mstore\n      0x04\n      add\n      tag_57\n      swap1\n      tag_58\n      jump\t// in\n    tag_57:\n      mload(0x40)\n      dup1\n      swap2\n      sub\n      swap1\n      revert\n    tag_56:\n        /* \"Contracts/FundMe.sol\":1215:1646  {... */\n      pop\n        /* \"Contracts/FundMe.sol\":1186:1646  function withdraw () public  {... */\n      jump\t// out\n        /* \"Contracts/FundMe.sol\":553:631  mapping (address funder => uint256 amountFunded ) public addressToAmountFunded */\n    tag_20:\n      mstore(0x20, 0x03)\n      dup1\n      0x00\n      mstore\n      keccak256(0x00, 0x40)\n      0x00\n      swap2\n      pop\n      swap1\n      pop\n      sload\n      dup2\n      jump\t// out\n        /* \"Contracts/FundMe.sol\":640:660  address public owner */\n    tag_24:\n      0x04\n      0x00\n      swap1\n      sload\n      swap1\n      0x0100\n      exp\n      swap1\n      div\n      0xffffffffffffffffffffffffffffffffffffffff\n      and\n      dup2\n      jump\t// out\n        /* \"Contracts/FundMe.sol\":974:1172  function fund() public payable {... */\n    tag_28:\n        /* \"Contracts/FundMe.sol\":1058:1068  minimumUSD */\n      sload(0x00)\n        /* \"Contracts/FundMe.sol\":1025:1054  msg.value.getConversionRate() */\n      tag_60\n        /* \"Contracts/FundMe.sol\":1025:1034  msg.value */\n      callvalue\n        /* \"Contracts/FundMe.sol\":1025:1052  msg.value.getConversionRate */\n      tag_61\n        /* \"Contracts/FundMe.sol\":1025:1054  msg.value.getConversionRate() */\n      jump\t// in\n    tag_60:\n        /* \"Contracts/FundMe.sol\":1025:1068  msg.value.getConversionRate() >= minimumUSD */\n      lt\n      iszero\n        /* \"Contracts/FundMe.sol\":1016:1104  require (msg.value.getConversionRate() >= minimumUSD, \"You need to send at least 5 eth\") */\n      tag_62\n      jumpi\n      mload(0x40)\n      0x08c379a000000000000000000000000000000000000000000000000000000000\n      dup2\n      mstore\n      0x04\n      add\n      tag_63\n      swap1\n      tag_64\n      jump\t// in\n    tag_63:\n      mload(0x40)\n      dup1\n      swap2\n      sub\n      swap1\n      revert\n    tag_62:\n        /* \"Contracts/FundMe.sol\":1155:1164  msg.value */\n      callvalue\n        /* \"Contracts/FundMe.sol\":1117:1138  addressToAmountFunded */\n      0x03\n        /* \"Contracts/FundMe.sol\":1117:1150  addressToAmountFunded[msg.sender] */\n      0x00\n        /* \"Contracts/FundMe.sol\":1139:1149  msg.sender */\n      caller\n        /* \"Contracts/FundMe.sol\":1117:1150  addressToAmountFunded[msg.sender] */\n      0xffffffffffffffffffffffffffffffffffffffff\n      and\n      0xffffffffffffffffffffffffffffffffffffffff\n      and\n      dup2\n      mstore\n      0x20\n      add\n      swap1\n      dup2\n      mstore\n      0x20\n      add\n      0x00\n      keccak256\n      0x00\n        /* \"Contracts/FundMe.sol\":1117:1164  addressToAmountFunded[msg.sender]  += msg.value */\n      dup3\n      dup3\n      sload\n      tag_65\n      swap2\n      swap1\n      tag_66\n      jump\t// in\n    tag_65:\n      swap3\n      pop\n      pop\n      dup2\n      swap1\n      sstore\n      pop\n        /* \"Contracts/FundMe.sol\":974:1172  function fund() public payable {... */\n      jump\t// out\n        /* \"Contracts/FundMe.sol\":402:427  address [] public funders */\n    tag_33:\n      0x01\n      dup2\n      dup2\n      sload\n      dup2\n      lt\n      tag_67\n      jumpi\n      0x00\n      dup1\n      revert\n    tag_67:\n      swap1\n      0x00\n      mstore\n      keccak256(0x00, 0x20)\n      add\n      0x00\n      swap2\n      pop\n      sload\n      swap1\n      0x0100\n      exp\n      swap1\n      div\n      0xffffffffffffffffffffffffffffffffffffffff\n      and\n      dup2\n      jump\t// out\n        /* \"Contracts/PriceConverter.sol\":587:810  function getConversionRate (uint256 ethAmount) internal view returns (uint256){... */\n    tag_61:\n        /* \"Contracts/PriceConverter.sol\":657:664  uint256 */\n      0x00\n        /* \"Contracts/PriceConverter.sol\":676:692  uint256 ethPrice */\n      dup1\n        /* \"Contracts/PriceConverter.sol\":695:705  getprice() */\n      tag_70\n        /* \"Contracts/PriceConverter.sol\":695:703  getprice */\n      tag_71\n        /* \"Contracts/PriceConverter.sol\":695:705  getprice() */\n      jump\t// in\n    tag_70:\n        /* \"Contracts/PriceConverter.sol\":676:705  uint256 ethPrice = getprice() */\n      swap1\n      pop\n        /* \"Contracts/PriceConverter.sol\":716:738  uint256 ethAmountInUsd */\n      0x00\n        /* \"Contracts/PriceConverter.sol\":766:770  1e18 */\n      0x0de0b6b3a7640000\n        /* \"Contracts/PriceConverter.sol\":754:762  ethPrice */\n      dup3\n        /* \"Contracts/PriceConverter.sol\":742:751  ethAmount */\n      dup6\n        /* \"Contracts/PriceConverter.sol\":742:762  ethAmount * ethPrice */\n      tag_72\n      swap2\n      swap1\n      tag_73\n      jump\t// in\n    tag_72:\n        /* \"Contracts/PriceConverter.sol\":741:770  (ethAmount * ethPrice) / 1e18 */\n      tag_74\n      swap2\n      swap1\n      tag_75\n      jump\t// in\n    tag_74:\n        /* \"Contracts/PriceConverter.sol\":716:770  uint256 ethAmountInUsd = (ethAmount * ethPrice) / 1e18 */\n      swap1\n      pop\n        /* \"Contracts/PriceConverter.sol\":788:802  ethAmountInUsd */\n      dup1\n        /* \"Contracts/PriceConverter.sol\":781:802  return ethAmountInUsd */\n      swap3\n      pop\n      pop\n      pop\n        /* \"Contracts/PriceConverter.sol\":587:810  function getConversionRate (uint256 ethAmount) internal view returns (uint256){... */\n      swap2\n      swap1\n      pop\n      jump\t// out\n        /* \"Contracts/PriceConverter.sol\":307:579  function getprice () internal view returns (uint256) {... */\n    tag_71:\n        /* \"Contracts/PriceConverter.sol\":351:358  uint256 */\n      0x00\n        /* \"Contracts/PriceConverter.sol\":373:404  AggregatorV3Interface priceFeed */\n      dup1\n        /* \"Contracts/PriceConverter.sol\":429:471  0x694AA1769357215DE4FAC081bf1f309aDC325306 */\n      0x694aa1769357215de4fac081bf1f309adc325306\n        /* \"Contracts/PriceConverter.sol\":373:472  AggregatorV3Interface priceFeed = AggregatorV3Interface(0x694AA1769357215DE4FAC081bf1f309aDC325306) */\n      swap1\n      pop\n        /* \"Contracts/PriceConverter.sol\":485:498  int256 answer */\n      0x00\n        /* \"Contracts/PriceConverter.sol\":504:513  priceFeed */\n      dup2\n        /* \"Contracts/PriceConverter.sol\":504:529  priceFeed.latestRoundData */\n      0xffffffffffffffffffffffffffffffffffffffff\n      and\n      0xfeaf968c\n        /* \"Contracts/PriceConverter.sol\":504:531  priceFeed.latestRoundData() */\n      mload(0x40)\n      dup2\n      0xffffffff\n      and\n      0xe0\n      shl\n      dup2\n      mstore\n      0x04\n      add\n      0xa0\n      mload(0x40)\n      dup1\n      dup4\n      sub\n      dup2\n      dup7\n      gas\n      staticcall\n      iszero\n      dup1\n      iszero\n      tag_78\n      jumpi\n      returndatasize\n      0x00\n      dup1\n      returndatacopy\n      revert(0x00, returndatasize)\n    tag_78:\n      pop\n      pop\n      pop\n      pop\n      mload(0x40)\n      returndatasize\n      not(0x1f)\n      0x1f\n      dup3\n      add\n      and\n      dup3\n      add\n      dup1\n      0x40\n      mstore\n      pop\n      dup2\n      add\n      swap1\n      tag_79\n      swap2\n      swap1\n      tag_80\n      jump\t// in\n    tag_79:\n        /* \"Contracts/PriceConverter.sol\":483:531  (,int256 answer,,,)= priceFeed.latestRoundData() */\n      pop\n      pop\n      pop\n      swap2\n      pop\n      pop\n        /* \"Contracts/PriceConverter.sol\":567:571  1e18 */\n      0x0de0b6b3a7640000\n        /* \"Contracts/PriceConverter.sol\":557:563  answer */\n      dup2\n        /* \"Contracts/PriceConverter.sol\":549:571  uint256(answer) * 1e18 */\n      tag_81\n      swap2\n      swap1\n      tag_73\n      jump\t// in\n    tag_81:\n        /* \"Contracts/PriceConverter.sol\":542:571  return uint256(answer) * 1e18 */\n      swap3\n      pop\n      pop\n      pop\n        /* \"Contracts/PriceConverter.sol\":307:579  function getprice () internal view returns (uint256) {... */\n      swap1\n      jump\t// out\n    tag_50:\n      dup3\n      dup1\n      sload\n      dup3\n      dup3\n      sstore\n      swap1\n      0x00\n      mstore\n      keccak256(0x00, 0x20)\n      swap1\n      dup2\n      add\n      swap3\n      dup3\n      iszero\n      tag_82\n      jumpi\n      swap2\n      0x20\n      mul\n      dup3\n      add\n    tag_83:\n      dup3\n      dup2\n      gt\n      iszero\n      tag_84\n      jumpi\n      dup3\n      mload\n      dup3\n      exp(0x0100, 0x00)\n      dup2\n      sload\n      dup2\n      0xffffffffffffffffffffffffffffffffffffffff\n      mul\n      not\n      and\n      swap1\n      dup4\n      0xffffffffffffffffffffffffffffffffffffffff\n      and\n      mul\n      or\n      swap1\n      sstore\n      pop\n      swap2\n      0x20\n      add\n      swap2\n      swap1\n      0x01\n      add\n      swap1\n      jump(tag_83)\n    tag_84:\n    tag_82:\n      pop\n      swap1\n      pop\n      tag_85\n      swap2\n      swap1\n      tag_86\n      jump\t// in\n    tag_85:\n      pop\n      swap1\n      jump\t// out\n    tag_86:\n    tag_87:\n      dup1\n      dup3\n      gt\n      iszero\n      tag_88\n      jumpi\n      0x00\n      dup2\n      0x00\n      swap1\n      sstore\n      pop\n      0x01\n      add\n      jump(tag_87)\n    tag_88:\n      pop\n      swap1\n      jump\t// out\n        /* \"#utility.yul\":7:84   */\n    tag_89:\n        /* \"#utility.yul\":44:51   */\n      0x00\n        /* \"#utility.yul\":73:78   */\n      dup2\n        /* \"#utility.yul\":62:78   */\n      swap1\n      pop\n        /* \"#utility.yul\":7:84   */\n      swap2\n      swap1\n      pop\n      jump\t// out\n        /* \"#utility.yul\":90:208   */\n    tag_90:\n        /* \"#utility.yul\":177:201   */\n      tag_121\n        /* \"#utility.yul\":195:200   */\n      dup2\n        /* \"#utility.yul\":177:201   */\n      tag_89\n      jump\t// in\n    tag_121:\n        /* \"#utility.yul\":172:175   */\n      dup3\n        /* \"#utility.yul\":165:202   */\n      mstore\n        /* \"#utility.yul\":90:208   */\n      pop\n      pop\n      jump\t// out\n        /* \"#utility.yul\":214:436   */\n    tag_12:\n        /* \"#utility.yul\":307:311   */\n      0x00\n        /* \"#utility.yul\":345:347   */\n      0x20\n        /* \"#utility.yul\":334:343   */\n      dup3\n        /* \"#utility.yul\":330:348   */\n      add\n        /* \"#utility.yul\":322:348   */\n      swap1\n      pop\n        /* \"#utility.yul\":358:429   */\n      tag_123\n        /* \"#utility.yul\":426:427   */\n      0x00\n        /* \"#utility.yul\":415:424   */\n      dup4\n        /* \"#utility.yul\":411:428   */\n      add\n        /* \"#utility.yul\":402:408   */\n      dup5\n        /* \"#utility.yul\":358:429   */\n      tag_90\n      jump\t// in\n    tag_123:\n        /* \"#utility.yul\":214:436   */\n      swap3\n      swap2\n      pop\n      pop\n      jump\t// out\n        /* \"#utility.yul\":523:640   */\n    tag_92:\n        /* \"#utility.yul\":632:633   */\n      0x00\n        /* \"#utility.yul\":629:630   */\n      dup1\n        /* \"#utility.yul\":622:634   */\n      revert\n        /* \"#utility.yul\":769:895   */\n    tag_94:\n        /* \"#utility.yul\":806:813   */\n      0x00\n        /* \"#utility.yul\":846:888   */\n      0xffffffffffffffffffffffffffffffffffffffff\n        /* \"#utility.yul\":839:844   */\n      dup3\n        /* \"#utility.yul\":835:889   */\n      and\n        /* \"#utility.yul\":824:889   */\n      swap1\n      pop\n        /* \"#utility.yul\":769:895   */\n      swap2\n      swap1\n      pop\n      jump\t// out\n        /* \"#utility.yul\":901:997   */\n    tag_95:\n        /* \"#utility.yul\":938:945   */\n      0x00\n        /* \"#utility.yul\":967:991   */\n      tag_129\n        /* \"#utility.yul\":985:990   */\n      dup3\n        /* \"#utility.yul\":967:991   */\n      tag_94\n      jump\t// in\n    tag_129:\n        /* \"#utility.yul\":956:991   */\n      swap1\n      pop\n        /* \"#utility.yul\":901:997   */\n      swap2\n      swap1\n      pop\n      jump\t// out\n        /* \"#utility.yul\":1003:1125   */\n    tag_96:\n        /* \"#utility.yul\":1076:1100   */\n      tag_131\n        /* \"#utility.yul\":1094:1099   */\n      dup2\n        /* \"#utility.yul\":1076:1100   */\n      tag_95\n      jump\t// in\n    tag_131:\n        /* \"#utility.yul\":1069:1074   */\n      dup2\n        /* \"#utility.yul\":1066:1101   */\n      eq\n        /* \"#utility.yul\":1056:1119   */\n      tag_132\n      jumpi\n        /* \"#utility.yul\":1115:1116   */\n      0x00\n        /* \"#utility.yul\":1112:1113   */\n      dup1\n        /* \"#utility.yul\":1105:1117   */\n      revert\n        /* \"#utility.yul\":1056:1119   */\n    tag_132:\n        /* \"#utility.yul\":1003:1125   */\n      pop\n      jump\t// out\n        /* \"#utility.yul\":1131:1270   */\n    tag_97:\n        /* \"#utility.yul\":1177:1182   */\n      0x00\n        /* \"#utility.yul\":1215:1221   */\n      dup2\n        /* \"#utility.yul\":1202:1222   */\n      calldataload\n        /* \"#utility.yul\":1193:1222   */\n      swap1\n      pop\n        /* \"#utility.yul\":1231:1264   */\n      tag_134\n        /* \"#utility.yul\":1258:1263   */\n      dup2\n        /* \"#utility.yul\":1231:1264   */\n      tag_96\n      jump\t// in\n    tag_134:\n        /* \"#utility.yul\":1131:1270   */\n      swap3\n      swap2\n      pop\n      pop\n      jump\t// out\n        /* \"#utility.yul\":1276:1605   */\n    tag_19:\n        /* \"#utility.yul\":1335:1341   */\n      0x00\n        /* \"#utility.yul\":1384:1386   */\n      0x20\n        /* \"#utility.yul\":1372:1381   */\n      dup3\n        /* \"#utility.yul\":1363:1370   */\n      dup5\n        /* \"#utility.yul\":1359:1382   */\n      sub\n        /* \"#utility.yul\":1355:1387   */\n      slt\n        /* \"#utility.yul\":1352:1471   */\n      iszero\n      tag_136\n      jumpi\n        /* \"#utility.yul\":1390:1469   */\n      tag_137\n      tag_92\n      jump\t// in\n    tag_137:\n        /* \"#utility.yul\":1352:1471   */\n    tag_136:\n        /* \"#utility.yul\":1510:1511   */\n      0x00\n        /* \"#utility.yul\":1535:1588   */\n      tag_138\n        /* \"#utility.yul\":1580:1587   */\n      dup5\n        /* \"#utility.yul\":1571:1577   */\n      dup3\n        /* \"#utility.yul\":1560:1569   */\n      dup6\n        /* \"#utility.yul\":1556:1578   */\n      add\n        /* \"#utility.yul\":1535:1588   */\n      tag_97\n      jump\t// in\n    tag_138:\n        /* \"#utility.yul\":1525:1588   */\n      swap2\n      pop\n        /* \"#utility.yul\":1481:1598   */\n      pop\n        /* \"#utility.yul\":1276:1605   */\n      swap3\n      swap2\n      pop\n      pop\n      jump\t// out\n        /* \"#utility.yul\":1611:1729   */\n    tag_98:\n        /* \"#utility.yul\":1698:1722   */\n      tag_140\n        /* \"#utility.yul\":1716:1721   */\n      dup2\n        /* \"#utility.yul\":1698:1722   */\n      tag_95\n      jump\t// in\n    tag_140:\n        /* \"#utility.yul\":1693:1696   */\n      dup3\n        /* \"#utility.yul\":1686:1723   */\n      mstore\n        /* \"#utility.yul\":1611:1729   */\n      pop\n      pop\n      jump\t// out\n        /* \"#utility.yul\":1735:1957   */\n    tag_26:\n        /* \"#utility.yul\":1828:1832   */\n      0x00\n        /* \"#utility.yul\":1866:1868   */\n      0x20\n        /* \"#utility.yul\":1855:1864   */\n      dup3\n        /* \"#utility.yul\":1851:1869   */\n      add\n        /* \"#utility.yul\":1843:1869   */\n      swap1\n      pop\n        /* \"#utility.yul\":1879:1950   */\n      tag_142\n        /* \"#utility.yul\":1947:1948   */\n      0x00\n        /* \"#utility.yul\":1936:1945   */\n      dup4\n        /* \"#utility.yul\":1932:1949   */\n      add\n        /* \"#utility.yul\":1923:1929   */\n      dup5\n        /* \"#utility.yul\":1879:1950   */\n      tag_98\n      jump\t// in\n    tag_142:\n        /* \"#utility.yul\":1735:1957   */\n      swap3\n      swap2\n      pop\n      pop\n      jump\t// out\n        /* \"#utility.yul\":1963:2085   */\n    tag_99:\n        /* \"#utility.yul\":2036:2060   */\n      tag_144\n        /* \"#utility.yul\":2054:2059   */\n      dup2\n        /* \"#utility.yul\":2036:2060   */\n      tag_89\n      jump\t// in\n    tag_144:\n        /* \"#utility.yul\":2029:2034   */\n      dup2\n        /* \"#utility.yul\":2026:2061   */\n      eq\n        /* \"#utility.yul\":2016:2079   */\n      tag_145\n      jumpi\n        /* \"#utility.yul\":2075:2076   */\n      0x00\n        /* \"#utility.yul\":2072:2073   */\n      dup1\n        /* \"#utility.yul\":2065:2077   */\n      revert\n        /* \"#utility.yul\":2016:2079   */\n    tag_145:\n        /* \"#utility.yul\":1963:2085   */\n      pop\n      jump\t// out\n        /* \"#utility.yul\":2091:2230   */\n    tag_100:\n        /* \"#utility.yul\":2137:2142   */\n      0x00\n        /* \"#utility.yul\":2175:2181   */\n      dup2\n        /* \"#utility.yul\":2162:2182   */\n      calldataload\n        /* \"#utility.yul\":2153:2182   */\n      swap1\n      pop\n        /* \"#utility.yul\":2191:2224   */\n      tag_147\n        /* \"#utility.yul\":2218:2223   */\n      dup2\n        /* \"#utility.yul\":2191:2224   */\n      tag_99\n      jump\t// in\n    tag_147:\n        /* \"#utility.yul\":2091:2230   */\n      swap3\n      swap2\n      pop\n      pop\n      jump\t// out\n        /* \"#utility.yul\":2236:2565   */\n    tag_32:\n        /* \"#utility.yul\":2295:2301   */\n      0x00\n        /* \"#utility.yul\":2344:2346   */\n      0x20\n        /* \"#utility.yul\":2332:2341   */\n      dup3\n        /* \"#utility.yul\":2323:2330   */\n      dup5\n        /* \"#utility.yul\":2319:2342   */\n      sub\n        /* \"#utility.yul\":2315:2347   */\n      slt\n        /* \"#utility.yul\":2312:2431   */\n      iszero\n      tag_149\n      jumpi\n        /* \"#utility.yul\":2350:2429   */\n      tag_150\n      tag_92\n      jump\t// in\n    tag_150:\n        /* \"#utility.yul\":2312:2431   */\n    tag_149:\n        /* \"#utility.yul\":2470:2471   */\n      0x00\n        /* \"#utility.yul\":2495:2548   */\n      tag_151\n        /* \"#utility.yul\":2540:2547   */\n      dup5\n        /* \"#utility.yul\":2531:2537   */\n      dup3\n        /* \"#utility.yul\":2520:2529   */\n      dup6\n        /* \"#utility.yul\":2516:2538   */\n      add\n        /* \"#utility.yul\":2495:2548   */\n      tag_100\n      jump\t// in\n    tag_151:\n        /* \"#utility.yul\":2485:2548   */\n      swap2\n      pop\n        /* \"#utility.yul\":2441:2558   */\n      pop\n        /* \"#utility.yul\":2236:2565   */\n      swap3\n      swap2\n      pop\n      pop\n      jump\t// out\n        /* \"#utility.yul\":2571:2751   */\n    tag_41:\n        /* \"#utility.yul\":2619:2696   */\n      0x4e487b7100000000000000000000000000000000000000000000000000000000\n        /* \"#utility.yul\":2616:2617   */\n      0x00\n        /* \"#utility.yul\":2609:2697   */\n      mstore\n        /* \"#utility.yul\":2716:2720   */\n      0x32\n        /* \"#utility.yul\":2713:2714   */\n      0x04\n        /* \"#utility.yul\":2706:2721   */\n      mstore\n        /* \"#utility.yul\":2740:2744   */\n      0x24\n        /* \"#utility.yul\":2737:2738   */\n      0x00\n        /* \"#utility.yul\":2730:2745   */\n      revert\n        /* \"#utility.yul\":2757:2937   */\n    tag_101:\n        /* \"#utility.yul\":2805:2882   */\n      0x4e487b7100000000000000000000000000000000000000000000000000000000\n        /* \"#utility.yul\":2802:2803   */\n      0x00\n        /* \"#utility.yul\":2795:2883   */\n      mstore\n        /* \"#utility.yul\":2902:2906   */\n      0x11\n        /* \"#utility.yul\":2899:2900   */\n      0x04\n        /* \"#utility.yul\":2892:2907   */\n      mstore\n        /* \"#utility.yul\":2926:2930   */\n      0x24\n        /* \"#utility.yul\":2923:2924   */\n      0x00\n        /* \"#utility.yul\":2916:2931   */\n      revert\n        /* \"#utility.yul\":2943:3176   */\n    tag_44:\n        /* \"#utility.yul\":2982:2985   */\n      0x00\n        /* \"#utility.yul\":3005:3029   */\n      tag_155\n        /* \"#utility.yul\":3023:3028   */\n      dup3\n        /* \"#utility.yul\":3005:3029   */\n      tag_89\n      jump\t// in\n    tag_155:\n        /* \"#utility.yul\":2996:3029   */\n      swap2\n      pop\n        /* \"#utility.yul\":3051:3117   */\n      0xffffffffffffffffffffffffffffffffffffffffffffffffffffffffffffffff\n        /* \"#utility.yul\":3044:3049   */\n      dup3\n        /* \"#utility.yul\":3041:3118   */\n      sub\n        /* \"#utility.yul\":3038:3141   */\n      tag_156\n      jumpi\n        /* \"#utility.yul\":3121:3139   */\n      tag_157\n      tag_101\n      jump\t// in\n    tag_157:\n        /* \"#utility.yul\":3038:3141   */\n    tag_156:\n        /* \"#utility.yul\":3168:3169   */\n      0x01\n        /* \"#utility.yul\":3161:3166   */\n      dup3\n        /* \"#utility.yul\":3157:3170   */\n      add\n        /* \"#utility.yul\":3150:3170   */\n      swap1\n      pop\n        /* \"#utility.yul\":2943:3176   */\n      swap2\n      swap1\n      pop\n      jump\t// out\n        /* \"#utility.yul\":3182:3362   */\n    tag_47:\n        /* \"#utility.yul\":3230:3307   */\n      0x4e487b7100000000000000000000000000000000000000000000000000000000\n        /* \"#utility.yul\":3227:3228   */\n      0x00\n        /* \"#utility.yul\":3220:3308   */\n      mstore\n        /* \"#utility.yul\":3327:3331   */\n      0x41\n        /* \"#utility.yul\":3324:3325   */\n      0x04\n        /* \"#utility.yul\":3317:3332   */\n      mstore\n        /* \"#utility.yul\":3351:3355   */\n      0x24\n        /* \"#utility.yul\":3348:3349   */\n      0x00\n        /* \"#utility.yul\":3341:3356   */\n      revert\n        /* \"#utility.yul\":3368:3515   */\n    tag_102:\n        /* \"#utility.yul\":3469:3480   */\n      0x00\n        /* \"#utility.yul\":3506:3509   */\n      dup2\n        /* \"#utility.yul\":3491:3509   */\n      swap1\n      pop\n        /* \"#utility.yul\":3368:3515   */\n      swap3\n      swap2\n      pop\n      pop\n      jump\t// out\n        /* \"#utility.yul\":3521:3635   */\n    tag_103:\n      pop\n      jump\t// out\n        /* \"#utility.yul\":3641:4039   */\n    tag_104:\n        /* \"#utility.yul\":3800:3803   */\n      0x00\n        /* \"#utility.yul\":3821:3904   */\n      tag_162\n        /* \"#utility.yul\":3902:3903   */\n      0x00\n        /* \"#utility.yul\":3897:3900   */\n      dup4\n        /* \"#utility.yul\":3821:3904   */\n      tag_102\n      jump\t// in\n    tag_162:\n        /* \"#utility.yul\":3814:3904   */\n      swap2\n      pop\n        /* \"#utility.yul\":3913:4006   */\n      tag_163\n        /* \"#utility.yul\":4002:4005   */\n      dup3\n        /* \"#utility.yul\":3913:4006   */\n      tag_103\n      jump\t// in\n    tag_163:\n        /* \"#utility.yul\":4031:4032   */\n      0x00\n        /* \"#utility.yul\":4026:4029   */\n      dup3\n        /* \"#utility.yul\":4022:4033   */\n      add\n        /* \"#utility.yul\":4015:4033   */\n      swap1\n      pop\n        /* \"#utility.yul\":3641:4039   */\n      swap2\n      swap1\n      pop\n      jump\t// out\n        /* \"#utility.yul\":4045:4424   */\n    tag_52:\n        /* \"#utility.yul\":4229:4232   */\n      0x00\n        /* \"#utility.yul\":4251:4398   */\n      tag_165\n        /* \"#utility.yul\":4394:4397   */\n      dup3\n        /* \"#utility.yul\":4251:4398   */\n      tag_104\n      jump\t// in\n    tag_165:\n        /* \"#utility.yul\":4244:4398   */\n      swap2\n      pop\n        /* \"#utility.yul\":4415:4418   */\n      dup2\n        /* \"#utility.yul\":4408:4418   */\n      swap1\n      pop\n        /* \"#utility.yul\":4045:4424   */\n      swap2\n      swap1\n      pop\n      jump\t// out\n        /* \"#utility.yul\":4430:4599   */\n    tag_105:\n        /* \"#utility.yul\":4514:4525   */\n      0x00\n        /* \"#utility.yul\":4548:4554   */\n      dup3\n        /* \"#utility.yul\":4543:4546   */\n      dup3\n        /* \"#utility.yul\":4536:4555   */\n      mstore\n        /* \"#utility.yul\":4588:4592   */\n      0x20\n        /* \"#utility.yul\":4583:4586   */\n      dup3\n        /* \"#utility.yul\":4579:4593   */\n      add\n        /* \"#utility.yul\":4564:4593   */\n      swap1\n      pop\n        /* \"#utility.yul\":4430:4599   */\n      swap3\n      swap2\n      pop\n      pop\n      jump\t// out\n        /* \"#utility.yul\":4605:4766   */\n    tag_106:\n        /* \"#utility.yul\":4745:4758   */\n      0x63616c6c204661696c6564000000000000000000000000000000000000000000\n        /* \"#utility.yul\":4741:4742   */\n      0x00\n        /* \"#utility.yul\":4733:4739   */\n      dup3\n        /* \"#utility.yul\":4729:4743   */\n      add\n        /* \"#utility.yul\":4722:4759   */\n      mstore\n        /* \"#utility.yul\":4605:4766   */\n      pop\n      jump\t// out\n        /* \"#utility.yul\":4772:5138   */\n    tag_107:\n        /* \"#utility.yul\":4914:4917   */\n      0x00\n        /* \"#utility.yul\":4935:5002   */\n      tag_169\n        /* \"#utility.yul\":4999:5001   */\n      0x0b\n        /* \"#utility.yul\":4994:4997   */\n      dup4\n        /* \"#utility.yul\":4935:5002   */\n      tag_105\n      jump\t// in\n    tag_169:\n        /* \"#utility.yul\":4928:5002   */\n      swap2\n      pop\n        /* \"#utility.yul\":5011:5104   */\n      tag_170\n        /* \"#utility.yul\":5100:5103   */\n      dup3\n        /* \"#utility.yul\":5011:5104   */\n      tag_106\n      jump\t// in\n    tag_170:\n        /* \"#utility.yul\":5129:5131   */\n      0x20\n        /* \"#utility.yul\":5124:5127   */\n      dup3\n        /* \"#utility.yul\":5120:5132   */\n      add\n        /* \"#utility.yul\":5113:5132   */\n      swap1\n      pop\n        /* \"#utility.yul\":4772:5138   */\n      swap2\n      swap1\n      pop\n      jump\t// out\n        /* \"#utility.yul\":5144:5563   */\n    tag_58:\n        /* \"#utility.yul\":5310:5314   */\n      0x00\n        /* \"#utility.yul\":5348:5350   */\n      0x20\n        /* \"#utility.yul\":5337:5346   */\n      dup3\n        /* \"#utility.yul\":5333:5351   */\n      add\n        /* \"#utility.yul\":5325:5351   */\n      swap1\n      pop\n        /* \"#utility.yul\":5397:5406   */\n      dup2\n        /* \"#utility.yul\":5391:5395   */\n      dup2\n        /* \"#utility.yul\":5387:5407   */\n      sub\n        /* \"#utility.yul\":5383:5384   */\n      0x00\n        /* \"#utility.yul\":5372:5381   */\n      dup4\n        /* \"#utility.yul\":5368:5385   */\n      add\n        /* \"#utility.yul\":5361:5408   */\n      mstore\n        /* \"#utility.yul\":5425:5556   */\n      tag_172\n        /* \"#utility.yul\":5551:5555   */\n      dup2\n        /* \"#utility.yul\":5425:5556   */\n      tag_107\n      jump\t// in\n    tag_172:\n        /* \"#utility.yul\":5417:5556   */\n      swap1\n      pop\n        /* \"#utility.yul\":5144:5563   */\n      swap2\n      swap1\n      pop\n      jump\t// out\n        /* \"#utility.yul\":5569:5750   */\n    tag_108:\n        /* \"#utility.yul\":5709:5742   */\n      0x596f75206e65656420746f2073656e64206174206c6561737420352065746800\n        /* \"#utility.yul\":5705:5706   */\n      0x00\n        /* \"#utility.yul\":5697:5703   */\n      dup3\n        /* \"#utility.yul\":5693:5707   */\n      add\n        /* \"#utility.yul\":5686:5743   */\n      mstore\n        /* \"#utility.yul\":5569:5750   */\n      pop\n      jump\t// out\n        /* \"#utility.yul\":5756:6122   */\n    tag_109:\n        /* \"#utility.yul\":5898:5901   */\n      0x00\n        /* \"#utility.yul\":5919:5986   */\n      tag_175\n        /* \"#utility.yul\":5983:5985   */\n      0x1f\n        /* \"#utility.yul\":5978:5981   */\n      dup4\n        /* \"#utility.yul\":5919:5986   */\n      tag_105\n      jump\t// in\n    tag_175:\n        /* \"#utility.yul\":5912:5986   */\n      swap2\n      pop\n        /* \"#utility.yul\":5995:6088   */\n      tag_176\n        /* \"#utility.yul\":6084:6087   */\n      dup3\n        /* \"#utility.yul\":5995:6088   */\n      tag_108\n      jump\t// in\n    tag_176:\n        /* \"#utility.yul\":6113:6115   */\n      0x20\n        /* \"#utility.yul\":6108:6111   */\n      dup3\n        /* \"#utility.yul\":6104:6116   */\n      add\n        /* \"#utility.yul\":6097:6116   */\n      swap1\n      pop\n        /* \"#utility.yul\":5756:6122   */\n      swap2\n      swap1\n      pop\n      jump\t// out\n        /* \"#utility.yul\":6128:6547   */\n    tag_64:\n        /* \"#utility.yul\":6294:6298   */\n      0x00\n        /* \"#utility.yul\":6332:6334   */\n      0x20\n        /* \"#utility.yul\":6321:6330   */\n      dup3\n        /* \"#utility.yul\":6317:6335   */\n      add\n        /* \"#utility.yul\":6309:6335   */\n      swap1\n      pop\n        /* \"#utility.yul\":6381:6390   */\n      dup2\n        /* \"#utility.yul\":6375:6379   */\n      dup2\n        /* \"#utility.yul\":6371:6391   */\n      sub\n        /* \"#utility.yul\":6367:6368   */\n      0x00\n        /* \"#utility.yul\":6356:6365   */\n      dup4\n        /* \"#utility.yul\":6352:6369   */\n      add\n        /* \"#utility.yul\":6345:6392   */\n      mstore\n        /* \"#utility.yul\":6409:6540   */\n      tag_178\n        /* \"#utility.yul\":6535:6539   */\n      dup2\n        /* \"#utility.yul\":6409:6540   */\n      tag_109\n      jump\t// in\n    tag_178:\n        /* \"#utility.yul\":6401:6540   */\n      swap1\n      pop\n        /* \"#utility.yul\":6128:6547   */\n      swap2\n      swap1\n      pop\n      jump\t// out\n        /* \"#utility.yul\":6553:6744   */\n    tag_66:\n        /* \"#utility.yul\":6593:6596   */\n      0x00\n        /* \"#utility.yul\":6612:6632   */\n      tag_180\n        /* \"#utility.yul\":6630:6631   */\n      dup3\n        /* \"#utility.yul\":6612:6632   */\n      tag_89\n      jump\t// in\n    tag_180:\n        /* \"#utility.yul\":6607:6632   */\n      swap2\n      pop\n        /* \"#utility.yul\":6646:6666   */\n      tag_181\n        /* \"#utility.yul\":6664:6665   */\n      dup4\n        /* \"#utility.yul\":6646:6666   */\n      tag_89\n      jump\t// in\n    tag_181:\n        /* \"#utility.yul\":6641:6666   */\n      swap3\n      pop\n        /* \"#utility.yul\":6689:6690   */\n      dup3\n        /* \"#utility.yul\":6686:6687   */\n      dup3\n        /* \"#utility.yul\":6682:6691   */\n      add\n        /* \"#utility.yul\":6675:6691   */\n      swap1\n      pop\n        /* \"#utility.yul\":6710:6713   */\n      dup1\n        /* \"#utility.yul\":6707:6708   */\n      dup3\n        /* \"#utility.yul\":6704:6714   */\n      gt\n        /* \"#utility.yul\":6701:6737   */\n      iszero\n      tag_182\n      jumpi\n        /* \"#utility.yul\":6717:6735   */\n      tag_183\n      tag_101\n      jump\t// in\n    tag_183:\n        /* \"#utility.yul\":6701:6737   */\n    tag_182:\n        /* \"#utility.yul\":6553:6744   */\n      swap3\n      swap2\n      pop\n      pop\n      jump\t// out\n        /* \"#utility.yul\":6750:7160   */\n    tag_73:\n        /* \"#utility.yul\":6790:6797   */\n      0x00\n        /* \"#utility.yul\":6813:6833   */\n      tag_185\n        /* \"#utility.yul\":6831:6832   */\n      dup3\n        /* \"#utility.yul\":6813:6833   */\n      tag_89\n      jump\t// in\n    tag_185:\n        /* \"#utility.yul\":6808:6833   */\n      swap2\n      pop\n        /* \"#utility.yul\":6847:6867   */\n      tag_186\n        /* \"#utility.yul\":6865:6866   */\n      dup4\n        /* \"#utility.yul\":6847:6867   */\n      tag_89\n      jump\t// in\n    tag_186:\n        /* \"#utility.yul\":6842:6867   */\n      swap3\n      pop\n        /* \"#utility.yul\":6902:6903   */\n      dup3\n        /* \"#utility.yul\":6899:6900   */\n      dup3\n        /* \"#utility.yul\":6895:6904   */\n      mul\n        /* \"#utility.yul\":6924:6954   */\n      tag_187\n        /* \"#utility.yul\":6942:6953   */\n      dup2\n        /* \"#utility.yul\":6924:6954   */\n      tag_89\n      jump\t// in\n    tag_187:\n        /* \"#utility.yul\":6913:6954   */\n      swap2\n      pop\n        /* \"#utility.yul\":7103:7104   */\n      dup3\n        /* \"#utility.yul\":7094:7101   */\n      dup3\n        /* \"#utility.yul\":7090:7105   */\n      div\n        /* \"#utility.yul\":7087:7088   */\n      dup5\n        /* \"#utility.yul\":7084:7106   */\n      eq\n        /* \"#utility.yul\":7064:7065   */\n      dup4\n        /* \"#utility.yul\":7057:7066   */\n      iszero\n        /* \"#utility.yul\":7037:7120   */\n      or\n        /* \"#utility.yul\":7014:7153   */\n      tag_188\n      jumpi\n        /* \"#utility.yul\":7133:7151   */\n      tag_189\n      tag_101\n      jump\t// in\n    tag_189:\n        /* \"#utility.yul\":7014:7153   */\n    tag_188:\n        /* \"#utility.yul\":6798:7160   */\n      pop\n        /* \"#utility.yul\":6750:7160   */\n      swap3\n      swap2\n      pop\n      pop\n      jump\t// out\n        /* \"#utility.yul\":7166:7346   */\n    tag_110:\n        /* \"#utility.yul\":7214:7291   */\n      0x4e487b7100000000000000000000000000000000000000000000000000000000\n        /* \"#utility.yul\":7211:7212   */\n      0x00\n        /* \"#utility.yul\":7204:7292   */\n      mstore\n        /* \"#utility.yul\":7311:7315   */\n      0x12\n        /* \"#utility.yul\":7308:7309   */\n      0x04\n        /* \"#utility.yul\":7301:7316   */\n      mstore\n        /* \"#utility.yul\":7335:7339   */\n      0x24\n        /* \"#utility.yul\":7332:7333   */\n      0x00\n        /* \"#utility.yul\":7325:7340   */\n      revert\n        /* \"#utility.yul\":7352:7537   */\n    tag_75:\n        /* \"#utility.yul\":7392:7393   */\n      0x00\n        /* \"#utility.yul\":7409:7429   */\n      tag_192\n        /* \"#utility.yul\":7427:7428   */\n      dup3\n        /* \"#utility.yul\":7409:7429   */\n      tag_89\n      jump\t// in\n    tag_192:\n        /* \"#utility.yul\":7404:7429   */\n      swap2\n      pop\n        /* \"#utility.yul\":7443:7463   */\n      tag_193\n        /* \"#utility.yul\":7461:7462   */\n      dup4\n        /* \"#utility.yul\":7443:7463   */\n      tag_89\n      jump\t// in\n    tag_193:\n        /* \"#utility.yul\":7438:7463   */\n      swap3\n      pop\n        /* \"#utility.yul\":7482:7483   */\n      dup3\n        /* \"#utility.yul\":7472:7507   */\n      tag_194\n      jumpi\n        /* \"#utility.yul\":7487:7505   */\n      tag_195\n      tag_110\n      jump\t// in\n    tag_195:\n        /* \"#utility.yul\":7472:7507   */\n    tag_194:\n        /* \"#utility.yul\":7529:7530   */\n      dup3\n        /* \"#utility.yul\":7526:7527   */\n      dup3\n        /* \"#utility.yul\":7522:7531   */\n      div\n        /* \"#utility.yul\":7517:7531   */\n      swap1\n      pop\n        /* \"#utility.yul\":7352:7537   */\n      swap3\n      swap2\n      pop\n      pop\n      jump\t// out\n        /* \"#utility.yul\":7543:7648   */\n    tag_111:\n        /* \"#utility.yul\":7579:7586   */\n      0x00\n        /* \"#utility.yul\":7619:7641   */\n      0xffffffffffffffffffff\n        /* \"#utility.yul\":7612:7617   */\n      dup3\n        /* \"#utility.yul\":7608:7642   */\n      and\n        /* \"#utility.yul\":7597:7642   */\n      swap1\n      pop\n        /* \"#utility.yul\":7543:7648   */\n      swap2\n      swap1\n      pop\n      jump\t// out\n        /* \"#utility.yul\":7654:7774   */\n    tag_112:\n        /* \"#utility.yul\":7726:7749   */\n      tag_198\n        /* \"#utility.yul\":7743:7748   */\n      dup2\n        /* \"#utility.yul\":7726:7749   */\n      tag_111\n      jump\t// in\n    tag_198:\n        /* \"#utility.yul\":7719:7724   */\n      dup2\n        /* \"#utility.yul\":7716:7750   */\n      eq\n        /* \"#utility.yul\":7706:7768   */\n      tag_199\n      jumpi\n        /* \"#utility.yul\":7764:7765   */\n      0x00\n        /* \"#utility.yul\":7761:7762   */\n      dup1\n        /* \"#utility.yul\":7754:7766   */\n      revert\n        /* \"#utility.yul\":7706:7768   */\n    tag_199:\n        /* \"#utility.yul\":7654:7774   */\n      pop\n      jump\t// out\n        /* \"#utility.yul\":7780:7921   */\n    tag_113:\n        /* \"#utility.yul\":7836:7841   */\n      0x00\n        /* \"#utility.yul\":7867:7873   */\n      dup2\n        /* \"#utility.yul\":7861:7874   */\n      mload\n        /* \"#utility.yul\":7852:7874   */\n      swap1\n      pop\n        /* \"#utility.yul\":7883:7915   */\n      tag_201\n        /* \"#utility.yul\":7909:7914   */\n      dup2\n        /* \"#utility.yul\":7883:7915   */\n      tag_112\n      jump\t// in\n    tag_201:\n        /* \"#utility.yul\":7780:7921   */\n      swap3\n      swap2\n      pop\n      pop\n      jump\t// out\n        /* \"#utility.yul\":7927:8003   */\n    tag_114:\n        /* \"#utility.yul\":7963:7970   */\n      0x00\n        /* \"#utility.yul\":7992:7997   */\n      dup2\n        /* \"#utility.yul\":7981:7997   */\n      swap1\n      pop\n        /* \"#utility.yul\":7927:8003   */\n      swap2\n      swap1\n      pop\n      jump\t// out\n        /* \"#utility.yul\":8009:8129   */\n    tag_115:\n        /* \"#utility.yul\":8081:8104   */\n      tag_204\n        /* \"#utility.yul\":8098:8103   */\n      dup2\n        /* \"#utility.yul\":8081:8104   */\n      tag_114\n      jump\t// in\n    tag_204:\n        /* \"#utility.yul\":8074:8079   */\n      dup2\n        /* \"#utility.yul\":8071:8105   */\n      eq\n        /* \"#utility.yul\":8061:8123   */\n      tag_205\n      jumpi\n        /* \"#utility.yul\":8119:8120   */\n      0x00\n        /* \"#utility.yul\":8116:8117   */\n      dup1\n        /* \"#utility.yul\":8109:8121   */\n      revert\n        /* \"#utility.yul\":8061:8123   */\n    tag_205:\n        /* \"#utility.yul\":8009:8129   */\n      pop\n      jump\t// out\n        /* \"#utility.yul\":8135:8276   */\n    tag_116:\n        /* \"#utility.yul\":8191:8196   */\n      0x00\n        /* \"#utility.yul\":8222:8228   */\n      dup2\n        /* \"#utility.yul\":8216:8229   */\n      mload\n        /* \"#utility.yul\":8207:8229   */\n      swap1\n      pop\n        /* \"#utility.yul\":8238:8270   */\n      tag_207\n        /* \"#utility.yul\":8264:8269   */\n      dup2\n        /* \"#utility.yul\":8238:8270   */\n      tag_115\n      jump\t// in\n    tag_207:\n        /* \"#utility.yul\":8135:8276   */\n      swap3\n      swap2\n      pop\n      pop\n      jump\t// out\n        /* \"#utility.yul\":8282:8425   */\n    tag_117:\n        /* \"#utility.yul\":8339:8344   */\n      0x00\n        /* \"#utility.yul\":8370:8376   */\n      dup2\n        /* \"#utility.yul\":8364:8377   */\n      mload\n        /* \"#utility.yul\":8355:8377   */\n      swap1\n      pop\n        /* \"#utility.yul\":8386:8419   */\n      tag_209\n        /* \"#utility.yul\":8413:8418   */\n      dup2\n        /* \"#utility.yul\":8386:8419   */\n      tag_99\n      jump\t// in\n    tag_209:\n        /* \"#utility.yul\":8282:8425   */\n      swap3\n      swap2\n      pop\n      pop\n      jump\t// out\n        /* \"#utility.yul\":8431:9402   */\n    tag_80:\n        /* \"#utility.yul\":8534:8540   */\n      0x00\n        /* \"#utility.yul\":8542:8548   */\n      dup1\n        /* \"#utility.yul\":8550:8556   */\n      0x00\n        /* \"#utility.yul\":8558:8564   */\n      dup1\n        /* \"#utility.yul\":8566:8572   */\n      0x00\n        /* \"#utility.yul\":8615:8618   */\n      0xa0\n        /* \"#utility.yul\":8603:8612   */\n      dup7\n        /* \"#utility.yul\":8594:8601   */\n      dup9\n        /* \"#utility.yul\":8590:8613   */\n      sub\n        /* \"#utility.yul\":8586:8619   */\n      slt\n        /* \"#utility.yul\":8583:8703   */\n      iszero\n      tag_211\n      jumpi\n        /* \"#utility.yul\":8622:8701   */\n      tag_212\n      tag_92\n      jump\t// in\n    tag_212:\n        /* \"#utility.yul\":8583:8703   */\n    tag_211:\n        /* \"#utility.yul\":8742:8743   */\n      0x00\n        /* \"#utility.yul\":8767:8830   */\n      tag_213\n        /* \"#utility.yul\":8822:8829   */\n      dup9\n        /* \"#utility.yul\":8813:8819   */\n      dup3\n        /* \"#utility.yul\":8802:8811   */\n      dup10\n        /* \"#utility.yul\":8798:8820   */\n      add\n        /* \"#utility.yul\":8767:8830   */\n      tag_113\n      jump\t// in\n    tag_213:\n        /* \"#utility.yul\":8757:8830   */\n      swap6\n      pop\n        /* \"#utility.yul\":8713:8840   */\n      pop\n        /* \"#utility.yul\":8879:8881   */\n      0x20\n        /* \"#utility.yul\":8905:8968   */\n      tag_214\n        /* \"#utility.yul\":8960:8967   */\n      dup9\n        /* \"#utility.yul\":8951:8957   */\n      dup3\n        /* \"#utility.yul\":8940:8949   */\n      dup10\n        /* \"#utility.yul\":8936:8958   */\n      add\n        /* \"#utility.yul\":8905:8968   */\n      tag_116\n      jump\t// in\n    tag_214:\n        /* \"#utility.yul\":8895:8968   */\n      swap5\n      pop\n        /* \"#utility.yul\":8850:8978   */\n      pop\n        /* \"#utility.yul\":9017:9019   */\n      0x40\n        /* \"#utility.yul\":9043:9107   */\n      tag_215\n        /* \"#utility.yul\":9099:9106   */\n      dup9\n        /* \"#utility.yul\":9090:9096   */\n      dup3\n        /* \"#utility.yul\":9079:9088   */\n      dup10\n        /* \"#utility.yul\":9075:9097   */\n      add\n        /* \"#utility.yul\":9043:9107   */\n      tag_117\n      jump\t// in\n    tag_215:\n        /* \"#utility.yul\":9033:9107   */\n      swap4\n      pop\n        /* \"#utility.yul\":8988:9117   */\n      pop\n        /* \"#utility.yul\":9156:9158   */\n      0x60\n        /* \"#utility.yul\":9182:9246   */\n      tag_216\n        /* \"#utility.yul\":9238:9245   */\n      dup9\n        /* \"#utility.yul\":9229:9235   */\n      dup3\n        /* \"#utility.yul\":9218:9227   */\n      dup10\n        /* \"#utility.yul\":9214:9236   */\n      add\n        /* \"#utility.yul\":9182:9246   */\n      tag_117\n      jump\t// in\n    tag_216:\n        /* \"#utility.yul\":9172:9246   */\n      swap3\n      pop\n        /* \"#utility.yul\":9127:9256   */\n      pop\n        /* \"#utility.yul\":9295:9298   */\n      0x80\n        /* \"#utility.yul\":9322:9385   */\n      tag_217\n        /* \"#utility.yul\":9377:9384   */\n      dup9\n        /* \"#utility.yul\":9368:9374   */\n      dup3\n        /* \"#utility.yul\":9357:9366   */\n      dup10\n        /* \"#utility.yul\":9353:9375   */\n      add\n        /* \"#utility.yul\":9322:9385   */\n      tag_113\n      jump\t// in\n    tag_217:\n        /* \"#utility.yul\":9312:9385   */\n      swap2\n      pop\n        /* \"#utility.yul\":9266:9395   */\n      pop\n        /* \"#utility.yul\":8431:9402   */\n      swap3\n      swap6\n      pop\n      swap3\n      swap6\n      swap1\n      swap4\n      pop\n      jump\t// out\n\n    auxdata: 0xa26469706673582212206605b80ba0ab5cfbbcbf8113b629e86f7cb3083b05c3f2cf8e691628b6c66fe764736f6c634300081a0033\n}\n",
				"bytecode": {
					"linkReferences": {},
					"object": "6080604052674563918244f400005f553480156019575f80fd5b503360045f6101000a81548173ffffffffffffffffffffffffffffffffffffffff021916908373ffffffffffffffffffffffffffffffffffffffff160217905550610acc806100675f395ff3fe608060405260043610610054575f3560e01c80633430a88c146100585780633ccfd60b146100825780633e47d6f3146100985780638da5cb5b146100d4578063b60d4288146100fe578063dc0d3dff14610108575b5f80fd5b348015610063575f80fd5b5061006c610144565b60405161007991906105ba565b60405180910390f35b34801561008d575f80fd5b50610096610149565b005b3480156100a3575f80fd5b506100be60048036038101906100b99190610631565b61030a565b6040516100cb91906105ba565b60405180910390f35b3480156100df575f80fd5b506100e861031f565b6040516100f5919061066b565b60405180910390f35b610106610344565b005b348015610113575f80fd5b5061012e600480360381019061012991906106ae565b6103e5565b60405161013b919061066b565b60405180910390f35b5f5481565b5f6002819055505b6001805490506002541015610200575f600160025481548110610177576101766106d9565b5b905f5260205f20015f9054906101000a900473ffffffffffffffffffffffffffffffffffffffff1690505f60035f8373ffffffffffffffffffffffffffffffffffffffff1673ffffffffffffffffffffffffffffffffffffffff1681526020019081526020015f20819055505060025f8154809291906101f690610733565b9190505550610151565b5f67ffffffffffffffff81111561021a5761021961077a565b5b6040519080825280602002602001820160405280156102485781602001602082028036833780820191505090505b506001908051906020019061025e929190610500565b505f3373ffffffffffffffffffffffffffffffffffffffff1647604051610284906107d4565b5f6040518083038185875af1925050503d805f81146102be576040519150601f19603f3d011682016040523d82523d5f602084013e6102c3565b606091505b5050905080610307576040517f08c379a00000000000000000000000000000000000000000000000000000000081526004016102fe90610842565b60405180910390fd5b50565b6003602052805f5260405f205f915090505481565b60045f9054906101000a900473ffffffffffffffffffffffffffffffffffffffff1681565b5f5461034f34610420565b1015610390576040517f08c379a0000000000000000000000000000000000000000000000000000000008152600401610387906108aa565b60405180910390fd5b3460035f3373ffffffffffffffffffffffffffffffffffffffff1673ffffffffffffffffffffffffffffffffffffffff1681526020019081526020015f205f8282546103dc91906108c8565b92505081905550565b600181815481106103f4575f80fd5b905f5260205f20015f915054906101000a900473ffffffffffffffffffffffffffffffffffffffff1681565b5f8061042a610458565b90505f670de0b6b3a7640000828561044291906108fb565b61044c9190610969565b90508092505050919050565b5f8073694aa1769357215de4fac081bf1f309adc32530690505f8173ffffffffffffffffffffffffffffffffffffffff1663feaf968c6040518163ffffffff1660e01b815260040160a060405180830381865afa1580156104bb573d5f803e3d5ffd5b505050506040513d601f19601f820116820180604052508101906104df9190610a1f565b505050915050670de0b6b3a7640000816104f991906108fb565b9250505090565b828054828255905f5260205f20908101928215610576579160200282015b82811115610575578251825f6101000a81548173ffffffffffffffffffffffffffffffffffffffff021916908373ffffffffffffffffffffffffffffffffffffffff1602179055509160200191906001019061051e565b5b5090506105839190610587565b5090565b5b8082111561059e575f815f905550600101610588565b5090565b5f819050919050565b6105b4816105a2565b82525050565b5f6020820190506105cd5f8301846105ab565b92915050565b5f80fd5b5f73ffffffffffffffffffffffffffffffffffffffff82169050919050565b5f610600826105d7565b9050919050565b610610816105f6565b811461061a575f80fd5b50565b5f8135905061062b81610607565b92915050565b5f60208284031215610646576106456105d3565b5b5f6106538482850161061d565b91505092915050565b610665816105f6565b82525050565b5f60208201905061067e5f83018461065c565b92915050565b61068d816105a2565b8114610697575f80fd5b50565b5f813590506106a881610684565b92915050565b5f602082840312156106c3576106c26105d3565b5b5f6106d08482850161069a565b91505092915050565b7f4e487b71000000000000000000000000000000000000000000000000000000005f52603260045260245ffd5b7f4e487b71000000000000000000000000000000000000000000000000000000005f52601160045260245ffd5b5f61073d826105a2565b91507fffffffffffffffffffffffffffffffffffffffffffffffffffffffffffffffff820361076f5761076e610706565b5b600182019050919050565b7f4e487b71000000000000000000000000000000000000000000000000000000005f52604160045260245ffd5b5f81905092915050565b50565b5f6107bf5f836107a7565b91506107ca826107b1565b5f82019050919050565b5f6107de826107b4565b9150819050919050565b5f82825260208201905092915050565b7f63616c6c204661696c65640000000000000000000000000000000000000000005f82015250565b5f61082c600b836107e8565b9150610837826107f8565b602082019050919050565b5f6020820190508181035f83015261085981610820565b9050919050565b7f596f75206e65656420746f2073656e64206174206c65617374203520657468005f82015250565b5f610894601f836107e8565b915061089f82610860565b602082019050919050565b5f6020820190508181035f8301526108c181610888565b9050919050565b5f6108d2826105a2565b91506108dd836105a2565b92508282019050808211156108f5576108f4610706565b5b92915050565b5f610905826105a2565b9150610910836105a2565b925082820261091e816105a2565b9150828204841483151761093557610934610706565b5b5092915050565b7f4e487b71000000000000000000000000000000000000000000000000000000005f52601260045260245ffd5b5f610973826105a2565b915061097e836105a2565b92508261098e5761098d61093c565b5b828204905092915050565b5f69ffffffffffffffffffff82169050919050565b6109b781610999565b81146109c1575f80fd5b50565b5f815190506109d2816109ae565b92915050565b5f819050919050565b6109ea816109d8565b81146109f4575f80fd5b50565b5f81519050610a05816109e1565b92915050565b5f81519050610a1981610684565b92915050565b5f805f805f60a08688031215610a3857610a376105d3565b5b5f610a45888289016109c4565b9550506020610a56888289016109f7565b9450506040610a6788828901610a0b565b9350506060610a7888828901610a0b565b9250506080610a89888289016109c4565b915050929550929590935056fea26469706673582212206605b80ba0ab5cfbbcbf8113b629e86f7cb3083b05c3f2cf8e691628b6c66fe764736f6c634300081a0033",
					"opcodes": "PUSH1 0x80 PUSH1 0x40 MSTORE PUSH8 0x4563918244F40000 PUSH0 SSTORE CALLVALUE DUP1 ISZERO PUSH1 0x19 JUMPI PUSH0 DUP1 REVERT JUMPDEST POP CALLER PUSH1 0x4 PUSH0 PUSH2 0x100 EXP DUP2 SLOAD DUP2 PUSH20 0xFFFFFFFFFFFFFFFFFFFFFFFFFFFFFFFFFFFFFFFF MUL NOT AND SWAP1 DUP4 PUSH20 0xFFFFFFFFFFFFFFFFFFFFFFFFFFFFFFFFFFFFFFFF AND MUL OR SWAP1 SSTORE POP PUSH2 0xACC DUP1 PUSH2 0x67 PUSH0 CODECOPY PUSH0 RETURN INVALID PUSH1 0x80 PUSH1 0x40 MSTORE PUSH1 0x4 CALLDATASIZE LT PUSH2 0x54 JUMPI PUSH0 CALLDATALOAD PUSH1 0xE0 SHR DUP1 PUSH4 0x3430A88C EQ PUSH2 0x58 JUMPI DUP1 PUSH4 0x3CCFD60B EQ PUSH2 0x82 JUMPI DUP1 PUSH4 0x3E47D6F3 EQ PUSH2 0x98 JUMPI DUP1 PUSH4 0x8DA5CB5B EQ PUSH2 0xD4 JUMPI DUP1 PUSH4 0xB60D4288 EQ PUSH2 0xFE JUMPI DUP1 PUSH4 0xDC0D3DFF EQ PUSH2 0x108 JUMPI JUMPDEST PUSH0 DUP1 REVERT JUMPDEST CALLVALUE DUP1 ISZERO PUSH2 0x63 JUMPI PUSH0 DUP1 REVERT JUMPDEST POP PUSH2 0x6C PUSH2 0x144 JUMP JUMPDEST PUSH1 0x40 MLOAD PUSH2 0x79 SWAP2 SWAP1 PUSH2 0x5BA JUMP JUMPDEST PUSH1 0x40 MLOAD DUP1 SWAP2 SUB SWAP1 RETURN JUMPDEST CALLVALUE DUP1 ISZERO PUSH2 0x8D JUMPI PUSH0 DUP1 REVERT JUMPDEST POP PUSH2 0x96 PUSH2 0x149 JUMP JUMPDEST STOP JUMPDEST CALLVALUE DUP1 ISZERO PUSH2 0xA3 JUMPI PUSH0 DUP1 REVERT JUMPDEST POP PUSH2 0xBE PUSH1 0x4 DUP1 CALLDATASIZE SUB DUP2 ADD SWAP1 PUSH2 0xB9 SWAP2 SWAP1 PUSH2 0x631 JUMP JUMPDEST PUSH2 0x30A JUMP JUMPDEST PUSH1 0x40 MLOAD PUSH2 0xCB SWAP2 SWAP1 PUSH2 0x5BA JUMP JUMPDEST PUSH1 0x40 MLOAD DUP1 SWAP2 SUB SWAP1 RETURN JUMPDEST CALLVALUE DUP1 ISZERO PUSH2 0xDF JUMPI PUSH0 DUP1 REVERT JUMPDEST POP PUSH2 0xE8 PUSH2 0x31F JUMP JUMPDEST PUSH1 0x40 MLOAD PUSH2 0xF5 SWAP2 SWAP1 PUSH2 0x66B JUMP JUMPDEST PUSH1 0x40 MLOAD DUP1 SWAP2 SUB SWAP1 RETURN JUMPDEST PUSH2 0x106 PUSH2 0x344 JUMP JUMPDEST STOP JUMPDEST CALLVALUE DUP1 ISZERO PUSH2 0x113 JUMPI PUSH0 DUP1 REVERT JUMPDEST POP PUSH2 0x12E PUSH1 0x4 DUP1 CALLDATASIZE SUB DUP2 ADD SWAP1 PUSH2 0x129 SWAP2 SWAP1 PUSH2 0x6AE JUMP JUMPDEST PUSH2 0x3E5 JUMP JUMPDEST PUSH1 0x40 MLOAD PUSH2 0x13B SWAP2 SWAP1 PUSH2 0x66B JUMP JUMPDEST PUSH1 0x40 MLOAD DUP1 SWAP2 SUB SWAP1 RETURN JUMPDEST PUSH0 SLOAD DUP2 JUMP JUMPDEST PUSH0 PUSH1 0x2 DUP2 SWAP1 SSTORE POP JUMPDEST PUSH1 0x1 DUP1 SLOAD SWAP1 POP PUSH1 0x2 SLOAD LT ISZERO PUSH2 0x200 JUMPI PUSH0 PUSH1 0x1 PUSH1 0x2 SLOAD DUP2 SLOAD DUP2 LT PUSH2 0x177 JUMPI PUSH2 0x176 PUSH2 0x6D9 JUMP JUMPDEST JUMPDEST SWAP1 PUSH0 MSTORE PUSH1 0x20 PUSH0 KECCAK256 ADD PUSH0 SWAP1 SLOAD SWAP1 PUSH2 0x100 EXP SWAP1 DIV PUSH20 0xFFFFFFFFFFFFFFFFFFFFFFFFFFFFFFFFFFFFFFFF AND SWAP1 POP PUSH0 PUSH1 0x3 PUSH0 DUP4 PUSH20 0xFFFFFFFFFFFFFFFFFFFFFFFFFFFFFFFFFFFFFFFF AND PUSH20 0xFFFFFFFFFFFFFFFFFFFFFFFFFFFFFFFFFFFFFFFF AND DUP2 MSTORE PUSH1 0x20 ADD SWAP1 DUP2 MSTORE PUSH1 0x20 ADD PUSH0 KECCAK256 DUP2 SWAP1 SSTORE POP POP PUSH1 0x2 PUSH0 DUP2 SLOAD DUP1 SWAP3 SWAP2 SWAP1 PUSH2 0x1F6 SWAP1 PUSH2 0x733 JUMP JUMPDEST SWAP2 SWAP1 POP SSTORE POP PUSH2 0x151 JUMP JUMPDEST PUSH0 PUSH8 0xFFFFFFFFFFFFFFFF DUP2 GT ISZERO PUSH2 0x21A JUMPI PUSH2 0x219 PUSH2 0x77A JUMP JUMPDEST JUMPDEST PUSH1 0x40 MLOAD SWAP1 DUP1 DUP3 MSTORE DUP1 PUSH1 0x20 MUL PUSH1 0x20 ADD DUP3 ADD PUSH1 0x40 MSTORE DUP1 ISZERO PUSH2 0x248 JUMPI DUP2 PUSH1 0x20 ADD PUSH1 0x20 DUP3 MUL DUP1 CALLDATASIZE DUP4 CALLDATACOPY DUP1 DUP3 ADD SWAP2 POP POP SWAP1 POP JUMPDEST POP PUSH1 0x1 SWAP1 DUP1 MLOAD SWAP1 PUSH1 0x20 ADD SWAP1 PUSH2 0x25E SWAP3 SWAP2 SWAP1 PUSH2 0x500 JUMP JUMPDEST POP PUSH0 CALLER PUSH20 0xFFFFFFFFFFFFFFFFFFFFFFFFFFFFFFFFFFFFFFFF AND SELFBALANCE PUSH1 0x40 MLOAD PUSH2 0x284 SWAP1 PUSH2 0x7D4 JUMP JUMPDEST PUSH0 PUSH1 0x40 MLOAD DUP1 DUP4 SUB DUP2 DUP6 DUP8 GAS CALL SWAP3 POP POP POP RETURNDATASIZE DUP1 PUSH0 DUP2 EQ PUSH2 0x2BE JUMPI PUSH1 0x40 MLOAD SWAP2 POP PUSH1 0x1F NOT PUSH1 0x3F RETURNDATASIZE ADD AND DUP3 ADD PUSH1 0x40 MSTORE RETURNDATASIZE DUP3 MSTORE RETURNDATASIZE PUSH0 PUSH1 0x20 DUP5 ADD RETURNDATACOPY PUSH2 0x2C3 JUMP JUMPDEST PUSH1 0x60 SWAP2 POP JUMPDEST POP POP SWAP1 POP DUP1 PUSH2 0x307 JUMPI PUSH1 0x40 MLOAD PUSH32 0x8C379A000000000000000000000000000000000000000000000000000000000 DUP2 MSTORE PUSH1 0x4 ADD PUSH2 0x2FE SWAP1 PUSH2 0x842 JUMP JUMPDEST PUSH1 0x40 MLOAD DUP1 SWAP2 SUB SWAP1 REVERT JUMPDEST POP JUMP JUMPDEST PUSH1 0x3 PUSH1 0x20 MSTORE DUP1 PUSH0 MSTORE PUSH1 0x40 PUSH0 KECCAK256 PUSH0 SWAP2 POP SWAP1 POP SLOAD DUP2 JUMP JUMPDEST PUSH1 0x4 PUSH0 SWAP1 SLOAD SWAP1 PUSH2 0x100 EXP SWAP1 DIV PUSH20 0xFFFFFFFFFFFFFFFFFFFFFFFFFFFFFFFFFFFFFFFF AND DUP2 JUMP JUMPDEST PUSH0 SLOAD PUSH2 0x34F CALLVALUE PUSH2 0x420 JUMP JUMPDEST LT ISZERO PUSH2 0x390 JUMPI PUSH1 0x40 MLOAD PUSH32 0x8C379A000000000000000000000000000000000000000000000000000000000 DUP2 MSTORE PUSH1 0x4 ADD PUSH2 0x387 SWAP1 PUSH2 0x8AA JUMP JUMPDEST PUSH1 0x40 MLOAD DUP1 SWAP2 SUB SWAP1 REVERT JUMPDEST CALLVALUE PUSH1 0x3 PUSH0 CALLER PUSH20 0xFFFFFFFFFFFFFFFFFFFFFFFFFFFFFFFFFFFFFFFF AND PUSH20 0xFFFFFFFFFFFFFFFFFFFFFFFFFFFFFFFFFFFFFFFF AND DUP2 MSTORE PUSH1 0x20 ADD SWAP1 DUP2 MSTORE PUSH1 0x20 ADD PUSH0 KECCAK256 PUSH0 DUP3 DUP3 SLOAD PUSH2 0x3DC SWAP2 SWAP1 PUSH2 0x8C8 JUMP JUMPDEST SWAP3 POP POP DUP2 SWAP1 SSTORE POP JUMP JUMPDEST PUSH1 0x1 DUP2 DUP2 SLOAD DUP2 LT PUSH2 0x3F4 JUMPI PUSH0 DUP1 REVERT JUMPDEST SWAP1 PUSH0 MSTORE PUSH1 0x20 PUSH0 KECCAK256 ADD PUSH0 SWAP2 POP SLOAD SWAP1 PUSH2 0x100 EXP SWAP1 DIV PUSH20 0xFFFFFFFFFFFFFFFFFFFFFFFFFFFFFFFFFFFFFFFF AND DUP2 JUMP JUMPDEST PUSH0 DUP1 PUSH2 0x42A PUSH2 0x458 JUMP JUMPDEST SWAP1 POP PUSH0 PUSH8 0xDE0B6B3A7640000 DUP3 DUP6 PUSH2 0x442 SWAP2 SWAP1 PUSH2 0x8FB JUMP JUMPDEST PUSH2 0x44C SWAP2 SWAP1 PUSH2 0x969 JUMP JUMPDEST SWAP1 POP DUP1 SWAP3 POP POP POP SWAP2 SWAP1 POP JUMP JUMPDEST PUSH0 DUP1 PUSH20 0x694AA1769357215DE4FAC081BF1F309ADC325306 SWAP1 POP PUSH0 DUP2 PUSH20 0xFFFFFFFFFFFFFFFFFFFFFFFFFFFFFFFFFFFFFFFF AND PUSH4 0xFEAF968C PUSH1 0x40 MLOAD DUP2 PUSH4 0xFFFFFFFF AND PUSH1 0xE0 SHL DUP2 MSTORE PUSH1 0x4 ADD PUSH1 0xA0 PUSH1 0x40 MLOAD DUP1 DUP4 SUB DUP2 DUP7 GAS STATICCALL ISZERO DUP1 ISZERO PUSH2 0x4BB JUMPI RETURNDATASIZE PUSH0 DUP1 RETURNDATACOPY RETURNDATASIZE PUSH0 REVERT JUMPDEST POP POP POP POP PUSH1 0x40 MLOAD RETURNDATASIZE PUSH1 0x1F NOT PUSH1 0x1F DUP3 ADD AND DUP3 ADD DUP1 PUSH1 0x40 MSTORE POP DUP2 ADD SWAP1 PUSH2 0x4DF SWAP2 SWAP1 PUSH2 0xA1F JUMP JUMPDEST POP POP POP SWAP2 POP POP PUSH8 0xDE0B6B3A7640000 DUP2 PUSH2 0x4F9 SWAP2 SWAP1 PUSH2 0x8FB JUMP JUMPDEST SWAP3 POP POP POP SWAP1 JUMP JUMPDEST DUP3 DUP1 SLOAD DUP3 DUP3 SSTORE SWAP1 PUSH0 MSTORE PUSH1 0x20 PUSH0 KECCAK256 SWAP1 DUP2 ADD SWAP3 DUP3 ISZERO PUSH2 0x576 JUMPI SWAP2 PUSH1 0x20 MUL DUP3 ADD JUMPDEST DUP3 DUP2 GT ISZERO PUSH2 0x575 JUMPI DUP3 MLOAD DUP3 PUSH0 PUSH2 0x100 EXP DUP2 SLOAD DUP2 PUSH20 0xFFFFFFFFFFFFFFFFFFFFFFFFFFFFFFFFFFFFFFFF MUL NOT AND SWAP1 DUP4 PUSH20 0xFFFFFFFFFFFFFFFFFFFFFFFFFFFFFFFFFFFFFFFF AND MUL OR SWAP1 SSTORE POP SWAP2 PUSH1 0x20 ADD SWAP2 SWAP1 PUSH1 0x1 ADD SWAP1 PUSH2 0x51E JUMP JUMPDEST JUMPDEST POP SWAP1 POP PUSH2 0x583 SWAP2 SWAP1 PUSH2 0x587 JUMP JUMPDEST POP SWAP1 JUMP JUMPDEST JUMPDEST DUP1 DUP3 GT ISZERO PUSH2 0x59E JUMPI PUSH0 DUP2 PUSH0 SWAP1 SSTORE POP PUSH1 0x1 ADD PUSH2 0x588 JUMP JUMPDEST POP SWAP1 JUMP JUMPDEST PUSH0 DUP2 SWAP1 POP SWAP2 SWAP1 POP JUMP JUMPDEST PUSH2 0x5B4 DUP2 PUSH2 0x5A2 JUMP JUMPDEST DUP3 MSTORE POP POP JUMP JUMPDEST PUSH0 PUSH1 0x20 DUP3 ADD SWAP1 POP PUSH2 0x5CD PUSH0 DUP4 ADD DUP5 PUSH2 0x5AB JUMP JUMPDEST SWAP3 SWAP2 POP POP JUMP JUMPDEST PUSH0 DUP1 REVERT JUMPDEST PUSH0 PUSH20 0xFFFFFFFFFFFFFFFFFFFFFFFFFFFFFFFFFFFFFFFF DUP3 AND SWAP1 POP SWAP2 SWAP1 POP JUMP JUMPDEST PUSH0 PUSH2 0x600 DUP3 PUSH2 0x5D7 JUMP JUMPDEST SWAP1 POP SWAP2 SWAP1 POP JUMP JUMPDEST PUSH2 0x610 DUP2 PUSH2 0x5F6 JUMP JUMPDEST DUP2 EQ PUSH2 0x61A JUMPI PUSH0 DUP1 REVERT JUMPDEST POP JUMP JUMPDEST PUSH0 DUP2 CALLDATALOAD SWAP1 POP PUSH2 0x62B DUP2 PUSH2 0x607 JUMP JUMPDEST SWAP3 SWAP2 POP POP JUMP JUMPDEST PUSH0 PUSH1 0x20 DUP3 DUP5 SUB SLT ISZERO PUSH2 0x646 JUMPI PUSH2 0x645 PUSH2 0x5D3 JUMP JUMPDEST JUMPDEST PUSH0 PUSH2 0x653 DUP5 DUP3 DUP6 ADD PUSH2 0x61D JUMP JUMPDEST SWAP2 POP POP SWAP3 SWAP2 POP POP JUMP JUMPDEST PUSH2 0x665 DUP2 PUSH2 0x5F6 JUMP JUMPDEST DUP3 MSTORE POP POP JUMP JUMPDEST PUSH0 PUSH1 0x20 DUP3 ADD SWAP1 POP PUSH2 0x67E PUSH0 DUP4 ADD DUP5 PUSH2 0x65C JUMP JUMPDEST SWAP3 SWAP2 POP POP JUMP JUMPDEST PUSH2 0x68D DUP2 PUSH2 0x5A2 JUMP JUMPDEST DUP2 EQ PUSH2 0x697 JUMPI PUSH0 DUP1 REVERT JUMPDEST POP JUMP JUMPDEST PUSH0 DUP2 CALLDATALOAD SWAP1 POP PUSH2 0x6A8 DUP2 PUSH2 0x684 JUMP JUMPDEST SWAP3 SWAP2 POP POP JUMP JUMPDEST PUSH0 PUSH1 0x20 DUP3 DUP5 SUB SLT ISZERO PUSH2 0x6C3 JUMPI PUSH2 0x6C2 PUSH2 0x5D3 JUMP JUMPDEST JUMPDEST PUSH0 PUSH2 0x6D0 DUP5 DUP3 DUP6 ADD PUSH2 0x69A JUMP JUMPDEST SWAP2 POP POP SWAP3 SWAP2 POP POP JUMP JUMPDEST PUSH32 0x4E487B7100000000000000000000000000000000000000000000000000000000 PUSH0 MSTORE PUSH1 0x32 PUSH1 0x4 MSTORE PUSH1 0x24 PUSH0 REVERT JUMPDEST PUSH32 0x4E487B7100000000000000000000000000000000000000000000000000000000 PUSH0 MSTORE PUSH1 0x11 PUSH1 0x4 MSTORE PUSH1 0x24 PUSH0 REVERT JUMPDEST PUSH0 PUSH2 0x73D DUP3 PUSH2 0x5A2 JUMP JUMPDEST SWAP2 POP PUSH32 0xFFFFFFFFFFFFFFFFFFFFFFFFFFFFFFFFFFFFFFFFFFFFFFFFFFFFFFFFFFFFFFFF DUP3 SUB PUSH2 0x76F JUMPI PUSH2 0x76E PUSH2 0x706 JUMP JUMPDEST JUMPDEST PUSH1 0x1 DUP3 ADD SWAP1 POP SWAP2 SWAP1 POP JUMP JUMPDEST PUSH32 0x4E487B7100000000000000000000000000000000000000000000000000000000 PUSH0 MSTORE PUSH1 0x41 PUSH1 0x4 MSTORE PUSH1 0x24 PUSH0 REVERT JUMPDEST PUSH0 DUP2 SWAP1 POP SWAP3 SWAP2 POP POP JUMP JUMPDEST POP JUMP JUMPDEST PUSH0 PUSH2 0x7BF PUSH0 DUP4 PUSH2 0x7A7 JUMP JUMPDEST SWAP2 POP PUSH2 0x7CA DUP3 PUSH2 0x7B1 JUMP JUMPDEST PUSH0 DUP3 ADD SWAP1 POP SWAP2 SWAP1 POP JUMP JUMPDEST PUSH0 PUSH2 0x7DE DUP3 PUSH2 0x7B4 JUMP JUMPDEST SWAP2 POP DUP2 SWAP1 POP SWAP2 SWAP1 POP JUMP JUMPDEST PUSH0 DUP3 DUP3 MSTORE PUSH1 0x20 DUP3 ADD SWAP1 POP SWAP3 SWAP2 POP POP JUMP JUMPDEST PUSH32 0x63616C6C204661696C6564000000000000000000000000000000000000000000 PUSH0 DUP3 ADD MSTORE POP JUMP JUMPDEST PUSH0 PUSH2 0x82C PUSH1 0xB DUP4 PUSH2 0x7E8 JUMP JUMPDEST SWAP2 POP PUSH2 0x837 DUP3 PUSH2 0x7F8 JUMP JUMPDEST PUSH1 0x20 DUP3 ADD SWAP1 POP SWAP2 SWAP1 POP JUMP JUMPDEST PUSH0 PUSH1 0x20 DUP3 ADD SWAP1 POP DUP2 DUP2 SUB PUSH0 DUP4 ADD MSTORE PUSH2 0x859 DUP2 PUSH2 0x820 JUMP JUMPDEST SWAP1 POP SWAP2 SWAP1 POP JUMP JUMPDEST PUSH32 0x596F75206E65656420746F2073656E64206174206C6561737420352065746800 PUSH0 DUP3 ADD MSTORE POP JUMP JUMPDEST PUSH0 PUSH2 0x894 PUSH1 0x1F DUP4 PUSH2 0x7E8 JUMP JUMPDEST SWAP2 POP PUSH2 0x89F DUP3 PUSH2 0x860 JUMP JUMPDEST PUSH1 0x20 DUP3 ADD SWAP1 POP SWAP2 SWAP1 POP JUMP JUMPDEST PUSH0 PUSH1 0x20 DUP3 ADD SWAP1 POP DUP2 DUP2 SUB PUSH0 DUP4 ADD MSTORE PUSH2 0x8C1 DUP2 PUSH2 0x888 JUMP JUMPDEST SWAP1 POP SWAP2 SWAP1 POP JUMP JUMPDEST PUSH0 PUSH2 0x8D2 DUP3 PUSH2 0x5A2 JUMP JUMPDEST SWAP2 POP PUSH2 0x8DD DUP4 PUSH2 0x5A2 JUMP JUMPDEST SWAP3 POP DUP3 DUP3 ADD SWAP1 POP DUP1 DUP3 GT ISZERO PUSH2 0x8F5 JUMPI PUSH2 0x8F4 PUSH2 0x706 JUMP JUMPDEST JUMPDEST SWAP3 SWAP2 POP POP JUMP JUMPDEST PUSH0 PUSH2 0x905 DUP3 PUSH2 0x5A2 JUMP JUMPDEST SWAP2 POP PUSH2 0x910 DUP4 PUSH2 0x5A2 JUMP JUMPDEST SWAP3 POP DUP3 DUP3 MUL PUSH2 0x91E DUP2 PUSH2 0x5A2 JUMP JUMPDEST SWAP2 POP DUP3 DUP3 DIV DUP5 EQ DUP4 ISZERO OR PUSH2 0x935 JUMPI PUSH2 0x934 PUSH2 0x706 JUMP JUMPDEST JUMPDEST POP SWAP3 SWAP2 POP POP JUMP JUMPDEST PUSH32 0x4E487B7100000000000000000000000000000000000000000000000000000000 PUSH0 MSTORE PUSH1 0x12 PUSH1 0x4 MSTORE PUSH1 0x24 PUSH0 REVERT JUMPDEST PUSH0 PUSH2 0x973 DUP3 PUSH2 0x5A2 JUMP JUMPDEST SWAP2 POP PUSH2 0x97E DUP4 PUSH2 0x5A2 JUMP JUMPDEST SWAP3 POP DUP3 PUSH2 0x98E JUMPI PUSH2 0x98D PUSH2 0x93C JUMP JUMPDEST JUMPDEST DUP3 DUP3 DIV SWAP1 POP SWAP3 SWAP2 POP POP JUMP JUMPDEST PUSH0 PUSH10 0xFFFFFFFFFFFFFFFFFFFF DUP3 AND SWAP1 POP SWAP2 SWAP1 POP JUMP JUMPDEST PUSH2 0x9B7 DUP2 PUSH2 0x999 JUMP JUMPDEST DUP2 EQ PUSH2 0x9C1 JUMPI PUSH0 DUP1 REVERT JUMPDEST POP JUMP JUMPDEST PUSH0 DUP2 MLOAD SWAP1 POP PUSH2 0x9D2 DUP2 PUSH2 0x9AE JUMP JUMPDEST SWAP3 SWAP2 POP POP JUMP JUMPDEST PUSH0 DUP2 SWAP1 POP SWAP2 SWAP1 POP JUMP JUMPDEST PUSH2 0x9EA DUP2 PUSH2 0x9D8 JUMP JUMPDEST DUP2 EQ PUSH2 0x9F4 JUMPI PUSH0 DUP1 REVERT JUMPDEST POP JUMP JUMPDEST PUSH0 DUP2 MLOAD SWAP1 POP PUSH2 0xA05 DUP2 PUSH2 0x9E1 JUMP JUMPDEST SWAP3 SWAP2 POP POP JUMP JUMPDEST PUSH0 DUP2 MLOAD SWAP1 POP PUSH2 0xA19 DUP2 PUSH2 0x684 JUMP JUMPDEST SWAP3 SWAP2 POP POP JUMP JUMPDEST PUSH0 DUP1 PUSH0 DUP1 PUSH0 PUSH1 0xA0 DUP7 DUP9 SUB SLT ISZERO PUSH2 0xA38 JUMPI PUSH2 0xA37 PUSH2 0x5D3 JUMP JUMPDEST JUMPDEST PUSH0 PUSH2 0xA45 DUP9 DUP3 DUP10 ADD PUSH2 0x9C4 JUMP JUMPDEST SWAP6 POP POP PUSH1 0x20 PUSH2 0xA56 DUP9 DUP3 DUP10 ADD PUSH2 0x9F7 JUMP JUMPDEST SWAP5 POP POP PUSH1 0x40 PUSH2 0xA67 DUP9 DUP3 DUP10 ADD PUSH2 0xA0B JUMP JUMPDEST SWAP4 POP POP PUSH1 0x60 PUSH2 0xA78 DUP9 DUP3 DUP10 ADD PUSH2 0xA0B JUMP JUMPDEST SWAP3 POP POP PUSH1 0x80 PUSH2 0xA89 DUP9 DUP3 DUP10 ADD PUSH2 0x9C4 JUMP JUMPDEST SWAP2 POP POP SWAP3 SWAP6 POP SWAP3 SWAP6 SWAP1 SWAP4 POP JUMP INVALID LOG2 PUSH5 0x6970667358 0x22 SLT KECCAK256 PUSH7 0x5B80BA0AB5CFB 0xBC 0xBF DUP2 SGT 0xB6 0x29 0xE8 PUSH16 0x7CB3083B05C3F2CF8E691628B6C66FE7 PUSH5 0x736F6C6343 STOP ADDMOD BYTE STOP CALLER "
				},
				"gasEstimates": {
					"creation": {
						"codeDepositCost": "552800",
						"executionCost": "46955",
						"totalCost": "599755"
					},
					"external": {
						"addressToAmountFunded(address)": "2824",
						"fund()": "infinite",
						"funders(uint256)": "5032",
						"minimumUSD()": "2402",
						"owner()": "2552",
						"withdraw()": "infinite"
					}
				},
				"methodIdentifiers": {
					"addressToAmountFunded(address)": "3e47d6f3",
					"fund()": "b60d4288",
					"funders(uint256)": "dc0d3dff",
					"minimumUSD()": "3430a88c",
					"owner()": "8da5cb5b",
					"withdraw()": "3ccfd60b"
				}
			},
			"storageLayout": {
				"storage": [
					{
						"astId": 55,
						"contract": "Contracts/FundMe.sol:FundMe",
						"label": "minimumUSD",
						"offset": 0,
						"slot": "0",
						"type": "t_uint256"
					},
					{
						"astId": 58,
						"contract": "Contracts/FundMe.sol:FundMe",
						"label": "funders",
						"offset": 0,
						"slot": "1",
						"type": "t_array(t_address)dyn_storage"
					},
					{
						"astId": 60,
						"contract": "Contracts/FundMe.sol:FundMe",
						"label": "funderIndex",
						"offset": 0,
						"slot": "2",
						"type": "t_uint256"
					},
					{
						"astId": 64,
						"contract": "Contracts/FundMe.sol:FundMe",
						"label": "addressToAmountFunded",
						"offset": 0,
						"slot": "3",
						"type": "t_mapping(t_address,t_uint256)"
					},
					{
						"astId": 66,
						"contract": "Contracts/FundMe.sol:FundMe",
						"label": "owner",
						"offset": 0,
						"slot": "4",
						"type": "t_address"
					}
				],
				"types": {
					"t_address": {
						"encoding": "inplace",
						"label": "address",
						"numberOfBytes": "20"
					},
					"t_array(t_address)dyn_storage": {
						"base": "t_address",
						"encoding": "dynamic_array",
						"label": "address[]",
						"numberOfBytes": "32"
					},
					"t_mapping(t_address,t_uint256)": {
						"encoding": "mapping",
						"key": "t_address",
						"label": "mapping(address => uint256)",
						"numberOfBytes": "32",
						"value": "t_uint256"
					},
					"t_uint256": {
						"encoding": "inplace",
						"label": "uint256",
						"numberOfBytes": "32"
					}
				}
			},
			"userdoc": {
				"kind": "user",
				"methods": {},
				"version": 1
			}
		}
	}
}